{
  "contractName": "MedicalRecords",
  "abi": [
    {
      "inputs": [],
      "stateMutability": "nonpayable",
      "type": "constructor"
    },
    {
      "anonymous": false,
      "inputs": [
        {
          "indexed": true,
          "internalType": "address",
          "name": "patient",
          "type": "address"
        },
        {
          "indexed": true,
          "internalType": "address",
          "name": "doctor",
          "type": "address"
        },
        {
          "indexed": false,
          "internalType": "string",
          "name": "doctorName",
          "type": "string"
        },
        {
          "indexed": false,
          "internalType": "uint256",
          "name": "timestamp",
          "type": "uint256"
        }
      ],
      "name": "AccessGranted",
      "type": "event"
    },
    {
      "anonymous": false,
      "inputs": [
        {
          "indexed": true,
          "internalType": "address",
          "name": "patient",
          "type": "address"
        },
        {
          "indexed": true,
          "internalType": "address",
          "name": "doctor",
          "type": "address"
        },
        {
          "indexed": false,
          "internalType": "uint256",
          "name": "timestamp",
          "type": "uint256"
        }
      ],
      "name": "AccessRevoked",
      "type": "event"
    },
    {
      "anonymous": false,
      "inputs": [
        {
          "indexed": true,
          "internalType": "uint256",
          "name": "recordId",
          "type": "uint256"
        },
        {
          "indexed": true,
          "internalType": "address",
          "name": "patient",
          "type": "address"
        },
        {
          "indexed": true,
          "internalType": "address",
          "name": "doctor",
          "type": "address"
        },
        {
          "indexed": false,
          "internalType": "string",
          "name": "ipfsCID",
          "type": "string"
        },
        {
          "indexed": false,
          "internalType": "enum MedicalRecords.RecordType",
          "name": "recordType",
          "type": "uint8"
        },
        {
          "indexed": false,
          "internalType": "uint256",
          "name": "timestamp",
          "type": "uint256"
        }
      ],
      "name": "RecordAdded",
      "type": "event"
    },
    {
      "anonymous": false,
      "inputs": [
        {
          "indexed": true,
          "internalType": "address",
          "name": "user",
          "type": "address"
        },
        {
          "indexed": false,
          "internalType": "enum MedicalRecords.Role",
          "name": "role",
          "type": "uint8"
        },
        {
          "indexed": false,
          "internalType": "uint256",
          "name": "timestamp",
          "type": "uint256"
        }
      ],
      "name": "RoleRegistered",
      "type": "event"
    },
    {
      "inputs": [],
      "name": "owner",
      "outputs": [
        {
          "internalType": "address",
          "name": "",
          "type": "address"
        }
      ],
      "stateMutability": "view",
      "type": "function"
    },
    {
      "inputs": [
        {
          "internalType": "address",
          "name": "",
          "type": "address"
        }
      ],
      "name": "userRole",
      "outputs": [
        {
          "internalType": "enum MedicalRecords.Role",
          "name": "",
          "type": "uint8"
        }
      ],
      "stateMutability": "view",
      "type": "function"
    },
    {
      "inputs": [
        {
          "internalType": "enum MedicalRecords.Role",
          "name": "role",
          "type": "uint8"
        }
      ],
      "name": "registerRole",
      "outputs": [],
      "stateMutability": "nonpayable",
      "type": "function"
    },
    {
      "inputs": [
        {
          "internalType": "address",
          "name": "user",
          "type": "address"
        }
      ],
      "name": "getRole",
      "outputs": [
        {
          "internalType": "enum MedicalRecords.Role",
          "name": "",
          "type": "uint8"
        }
      ],
      "stateMutability": "view",
      "type": "function"
    },
    {
      "inputs": [
        {
          "internalType": "address",
          "name": "patient",
          "type": "address"
        },
        {
          "internalType": "string",
          "name": "ipfsCID",
          "type": "string"
        },
        {
          "internalType": "string",
          "name": "encryptedKey",
          "type": "string"
        },
        {
          "internalType": "enum MedicalRecords.RecordType",
          "name": "rType",
          "type": "uint8"
        },
        {
          "internalType": "string",
          "name": "description",
          "type": "string"
        }
      ],
      "name": "addRecord",
      "outputs": [],
      "stateMutability": "nonpayable",
      "type": "function"
    },
    {
      "inputs": [
        {
          "internalType": "address",
          "name": "doctor",
          "type": "address"
        },
        {
          "internalType": "string",
          "name": "doctorName",
          "type": "string"
        }
      ],
      "name": "grantAccess",
      "outputs": [],
      "stateMutability": "nonpayable",
      "type": "function"
    },
    {
      "inputs": [
        {
          "internalType": "address",
          "name": "doctor",
          "type": "address"
        }
      ],
      "name": "revokeAccess",
      "outputs": [],
      "stateMutability": "nonpayable",
      "type": "function"
    },
    {
      "inputs": [],
      "name": "getMyRecords",
      "outputs": [
        {
          "components": [
            {
              "internalType": "uint256",
              "name": "id",
              "type": "uint256"
            },
            {
              "internalType": "string",
              "name": "ipfsCID",
              "type": "string"
            },
            {
              "internalType": "string",
              "name": "encryptedKey",
              "type": "string"
            },
            {
              "internalType": "address",
              "name": "patientAddress",
              "type": "address"
            },
            {
              "internalType": "address",
              "name": "doctorAddress",
              "type": "address"
            },
            {
              "internalType": "uint256",
              "name": "timestamp",
              "type": "uint256"
            },
            {
              "internalType": "enum MedicalRecords.RecordType",
              "name": "recordType",
              "type": "uint8"
            },
            {
              "internalType": "string",
              "name": "description",
              "type": "string"
            },
            {
              "internalType": "bool",
              "name": "exists",
              "type": "bool"
            }
          ],
          "internalType": "struct MedicalRecords.Record[]",
          "name": "",
          "type": "tuple[]"
        }
      ],
      "stateMutability": "view",
      "type": "function"
    },
    {
      "inputs": [
        {
          "internalType": "address",
          "name": "patient",
          "type": "address"
        }
      ],
      "name": "getPatientRecords",
      "outputs": [
        {
          "components": [
            {
              "internalType": "uint256",
              "name": "id",
              "type": "uint256"
            },
            {
              "internalType": "string",
              "name": "ipfsCID",
              "type": "string"
            },
            {
              "internalType": "string",
              "name": "encryptedKey",
              "type": "string"
            },
            {
              "internalType": "address",
              "name": "patientAddress",
              "type": "address"
            },
            {
              "internalType": "address",
              "name": "doctorAddress",
              "type": "address"
            },
            {
              "internalType": "uint256",
              "name": "timestamp",
              "type": "uint256"
            },
            {
              "internalType": "enum MedicalRecords.RecordType",
              "name": "recordType",
              "type": "uint8"
            },
            {
              "internalType": "string",
              "name": "description",
              "type": "string"
            },
            {
              "internalType": "bool",
              "name": "exists",
              "type": "bool"
            }
          ],
          "internalType": "struct MedicalRecords.Record[]",
          "name": "",
          "type": "tuple[]"
        }
      ],
      "stateMutability": "view",
      "type": "function"
    },
    {
      "inputs": [
        {
          "internalType": "address",
          "name": "patient",
          "type": "address"
        },
        {
          "internalType": "address",
          "name": "doctor",
          "type": "address"
        }
      ],
      "name": "isAuthorized",
      "outputs": [
        {
          "internalType": "bool",
          "name": "",
          "type": "bool"
        }
      ],
      "stateMutability": "view",
      "type": "function"
    },
    {
      "inputs": [],
      "name": "getAuthorizedDoctors",
      "outputs": [
        {
          "components": [
            {
              "internalType": "address",
              "name": "doctorAddress",
              "type": "address"
            },
            {
              "internalType": "string",
              "name": "name",
              "type": "string"
            },
            {
              "internalType": "uint256",
              "name": "grantedAt",
              "type": "uint256"
            },
            {
              "internalType": "bool",
              "name": "active",
              "type": "bool"
            }
          ],
          "internalType": "struct MedicalRecords.DoctorInfo[]",
          "name": "",
          "type": "tuple[]"
        }
      ],
      "stateMutability": "view",
      "type": "function"
    },
    {
      "inputs": [],
      "name": "getTotalRecords",
      "outputs": [
        {
          "internalType": "uint256",
          "name": "",
          "type": "uint256"
        }
      ],
      "stateMutability": "view",
      "type": "function"
    },
    {
      "inputs": [
        {
          "internalType": "address",
          "name": "patient",
          "type": "address"
        }
      ],
      "name": "getPatientRecordCount",
      "outputs": [
        {
          "internalType": "uint256",
          "name": "",
          "type": "uint256"
        }
      ],
      "stateMutability": "view",
      "type": "function"
    }
  ],
  "bytecode": "0x608060405234801561001057600080fd5b50336000806101000a81548173ffffffffffffffffffffffffffffffffffffffff021916908373ffffffffffffffffffffffffffffffffffffffff160217905550612da3806100606000396000f3fe608060405234801561001057600080fd5b50600436106100cf5760003560e01c8063534f56801161008c57806389680aff1161006657806389680aff146102385780638da5cb5b14610254578063e50fe48e14610272578063e76637ce1461028e576100cf565b8063534f5680146101bc57806365e4ad9e146101ec57806385e685311461021c576100cf565b80630a52c10a146100d45780630a9682ad146100f05780630aeacb5e1461012057806318bd48471461013e578063442767331461016e57806350bd43dc1461019e575b600080fd5b6100ee60048036038101906100e99190612279565b6102ac565b005b61010a600480360381019061010591906120f0565b6104b9565b6040516101179190612a67565b60405180910390f35b610128610505565b6040516101359190612a67565b60405180910390f35b610158600480360381019061015391906120f0565b61050f565b6040516101659190612854565b60405180910390f35b610188600480360381019061018391906120f0565b6109c7565b6040516101959190612891565b60405180910390f35b6101a6610a1d565b6040516101b39190612832565b60405180910390f35b6101d660048036038101906101d191906120f0565b610dab565b6040516101e39190612891565b60405180910390f35b61020660048036038101906102019190612119565b610dcb565b6040516102139190612876565b60405180910390f35b610236600480360381019061023191906120f0565b610e5f565b005b610252600480360381019061024d91906121ad565b611192565b005b61025c611743565b6040516102699190612817565b60405180910390f35b61028c60048036038101906102879190612155565b611767565b005b610296611bcf565b6040516102a39190612854565b60405180910390f35b600160028111156102e6577f4e487b7100000000000000000000000000000000000000000000000000000000600052602160045260246000fd5b81600281111561031f577f4e487b7100000000000000000000000000000000000000000000000000000000600052602160045260246000fd5b148061039a575060028081111561035f577f4e487b7100000000000000000000000000000000000000000000000000000000600052602160045260246000fd5b816002811115610398577f4e487b7100000000000000000000000000000000000000000000000000000000600052602160045260246000fd5b145b6103d9576040517f08c379a00000000000000000000000000000000000000000000000000000000081526004016103d0906129a7565b60405180910390fd5b80600560003373ffffffffffffffffffffffffffffffffffffffff1673ffffffffffffffffffffffffffffffffffffffff16815260200190815260200160002060006101000a81548160ff02191690836002811115610461577f4e487b7100000000000000000000000000000000000000000000000000000000600052602160045260246000fd5b02179055503373ffffffffffffffffffffffffffffffffffffffff167ff174be282d9e3cb1611ade5b051cc6774a119054579d2bd13747b73af56e8cd182426040516104ae9291906128ac565b60405180910390a250565b6000600260008373ffffffffffffffffffffffffffffffffffffffff1673ffffffffffffffffffffffffffffffffffffffff168152602001908152602001600020805490509050919050565b6000600154905090565b6060818073ffffffffffffffffffffffffffffffffffffffff163373ffffffffffffffffffffffffffffffffffffffff1614806105d25750600360008273ffffffffffffffffffffffffffffffffffffffff1673ffffffffffffffffffffffffffffffffffffffff16815260200190815260200160002060003373ffffffffffffffffffffffffffffffffffffffff1673ffffffffffffffffffffffffffffffffffffffff16815260200190815260200160002060009054906101000a900460ff165b610611576040517f08c379a0000000000000000000000000000000000000000000000000000000008152600401610608906129c7565b60405180910390fd5b600260008473ffffffffffffffffffffffffffffffffffffffff1673ffffffffffffffffffffffffffffffffffffffff168152602001908152602001600020805480602002602001604051908101604052809291908181526020016000905b828210156109bb578382906000526020600020906009020160405180610120016040529081600082015481526020016001820180546106ae90612bf5565b80601f01602080910402602001604051908101604052809291908181526020018280546106da90612bf5565b80156107275780601f106106fc57610100808354040283529160200191610727565b820191906000526020600020905b81548152906001019060200180831161070a57829003601f168201915b5050505050815260200160028201805461074090612bf5565b80601f016020809104026020016040519081016040528092919081815260200182805461076c90612bf5565b80156107b95780601f1061078e576101008083540402835291602001916107b9565b820191906000526020600020905b81548152906001019060200180831161079c57829003601f168201915b505050505081526020016003820160009054906101000a900473ffffffffffffffffffffffffffffffffffffffff1673ffffffffffffffffffffffffffffffffffffffff1673ffffffffffffffffffffffffffffffffffffffff1681526020016004820160009054906101000a900473ffffffffffffffffffffffffffffffffffffffff1673ffffffffffffffffffffffffffffffffffffffff1673ffffffffffffffffffffffffffffffffffffffff168152602001600582015481526020016006820160009054906101000a900460ff1660048111156108c3577f4e487b7100000000000000000000000000000000000000000000000000000000600052602160045260246000fd5b60048111156108fb577f4e487b7100000000000000000000000000000000000000000000000000000000600052602160045260246000fd5b815260200160078201805461090f90612bf5565b80601f016020809104026020016040519081016040528092919081815260200182805461093b90612bf5565b80156109885780601f1061095d57610100808354040283529160200191610988565b820191906000526020600020905b81548152906001019060200180831161096b57829003601f168201915b505050505081526020016008820160009054906101000a900460ff16151515158152505081526020019060010190610670565b50505050915050919050565b6000600560008373ffffffffffffffffffffffffffffffffffffffff1673ffffffffffffffffffffffffffffffffffffffff16815260200190815260200160002060009054906101000a900460ff169050919050565b60606000600460003373ffffffffffffffffffffffffffffffffffffffff1673ffffffffffffffffffffffffffffffffffffffff16815260200190815260200160002090506000805b8280549050811015610af157828181548110610aab577f4e487b7100000000000000000000000000000000000000000000000000000000600052603260045260246000fd5b906000526020600020906004020160030160009054906101000a900460ff1615610ade578180610ada90612c27565b9250505b8080610ae990612c27565b915050610a66565b5060008167ffffffffffffffff811115610b34577f4e487b7100000000000000000000000000000000000000000000000000000000600052604160045260246000fd5b604051908082528060200260200182016040528015610b6d57816020015b610b5a611f84565b815260200190600190039081610b525790505b5090506000805b8480549050811015610da057848181548110610bb9577f4e487b7100000000000000000000000000000000000000000000000000000000600052603260045260246000fd5b906000526020600020906004020160030160009054906101000a900460ff1615610d8d57848181548110610c16577f4e487b7100000000000000000000000000000000000000000000000000000000600052603260045260246000fd5b90600052602060002090600402016040518060800160405290816000820160009054906101000a900473ffffffffffffffffffffffffffffffffffffffff1673ffffffffffffffffffffffffffffffffffffffff1673ffffffffffffffffffffffffffffffffffffffff168152602001600182018054610c9590612bf5565b80601f0160208091040260200160405190810160405280929190818152602001828054610cc190612bf5565b8015610d0e5780601f10610ce357610100808354040283529160200191610d0e565b820191906000526020600020905b815481529060010190602001808311610cf157829003601f168201915b50505050508152602001600282015481526020016003820160009054906101000a900460ff161515151581525050838380610d4890612c27565b945081518110610d81577f4e487b7100000000000000000000000000000000000000000000000000000000600052603260045260246000fd5b60200260200101819052505b8080610d9890612c27565b915050610b74565b508194505050505090565b60056020528060005260406000206000915054906101000a900460ff1681565b6000600360008473ffffffffffffffffffffffffffffffffffffffff1673ffffffffffffffffffffffffffffffffffffffff16815260200190815260200160002060008373ffffffffffffffffffffffffffffffffffffffff1673ffffffffffffffffffffffffffffffffffffffff16815260200190815260200160002060009054906101000a900460ff16905092915050565b600360003373ffffffffffffffffffffffffffffffffffffffff1673ffffffffffffffffffffffffffffffffffffffff16815260200190815260200160002060008273ffffffffffffffffffffffffffffffffffffffff1673ffffffffffffffffffffffffffffffffffffffff16815260200190815260200160002060009054906101000a900460ff16610f28576040517f08c379a0000000000000000000000000000000000000000000000000000000008152600401610f1f90612a27565b60405180910390fd5b6000600360003373ffffffffffffffffffffffffffffffffffffffff1673ffffffffffffffffffffffffffffffffffffffff16815260200190815260200160002060008373ffffffffffffffffffffffffffffffffffffffff1673ffffffffffffffffffffffffffffffffffffffff16815260200190815260200160002060006101000a81548160ff0219169083151502179055506000600460003373ffffffffffffffffffffffffffffffffffffffff1673ffffffffffffffffffffffffffffffffffffffff168152602001908152602001600020905060005b8180549050811015611128578273ffffffffffffffffffffffffffffffffffffffff1682828154811061105f577f4e487b7100000000000000000000000000000000000000000000000000000000600052603260045260246000fd5b906000526020600020906004020160000160009054906101000a900473ffffffffffffffffffffffffffffffffffffffff1673ffffffffffffffffffffffffffffffffffffffff1614156111155760008282815481106110e8577f4e487b7100000000000000000000000000000000000000000000000000000000600052603260045260246000fd5b906000526020600020906004020160030160006101000a81548160ff021916908315150217905550611128565b808061112090612c27565b915050611003565b508173ffffffffffffffffffffffffffffffffffffffff163373ffffffffffffffffffffffffffffffffffffffff167f6f6a404ffd2cea4713256a4fd9ce99c8cf8cf32d85c2bb8061d1603ff57d50c3426040516111869190612a67565b60405180910390a35050565b878073ffffffffffffffffffffffffffffffffffffffff163373ffffffffffffffffffffffffffffffffffffffff1614806112535750600360008273ffffffffffffffffffffffffffffffffffffffff1673ffffffffffffffffffffffffffffffffffffffff16815260200190815260200160002060003373ffffffffffffffffffffffffffffffffffffffff1673ffffffffffffffffffffffffffffffffffffffff16815260200190815260200160002060009054906101000a900460ff165b611292576040517f08c379a0000000000000000000000000000000000000000000000000000000008152600401611289906129c7565b60405180910390fd5b600088889050116112d8576040517f08c379a00000000000000000000000000000000000000000000000000000000081526004016112cf906129e7565b60405180910390fd5b6000838390501161131e576040517f08c379a000000000000000000000000000000000000000000000000000000000815260040161131590612947565b60405180910390fd5b6001600081548092919061133190612c27565b9190505550600060405180610120016040528060015481526020018a8a8080601f016020809104026020016040519081016040528093929190818152602001838380828437600081840152601f19601f82011690508083019250505050505050815260200188888080601f016020809104026020016040519081016040528093929190818152602001838380828437600081840152601f19601f8201169050808301925050505050505081526020018b73ffffffffffffffffffffffffffffffffffffffff1681526020018b73ffffffffffffffffffffffffffffffffffffffff163373ffffffffffffffffffffffffffffffffffffffff16146114355733611438565b60005b73ffffffffffffffffffffffffffffffffffffffff168152602001428152602001866004811115611492577f4e487b7100000000000000000000000000000000000000000000000000000000600052602160045260246000fd5b815260200185858080601f016020809104026020016040519081016040528093929190818152602001838380828437600081840152601f19601f820116905080830192505050505050508152602001600115158152509050600260008b73ffffffffffffffffffffffffffffffffffffffff1673ffffffffffffffffffffffffffffffffffffffff168152602001908152602001600020819080600181540180825580915050600190039060005260206000209060090201600090919091909150600082015181600001556020820151816001019080519060200190611579929190611fc4565b506040820151816002019080519060200190611596929190611fc4565b5060608201518160030160006101000a81548173ffffffffffffffffffffffffffffffffffffffff021916908373ffffffffffffffffffffffffffffffffffffffff16021790555060808201518160040160006101000a81548173ffffffffffffffffffffffffffffffffffffffff021916908373ffffffffffffffffffffffffffffffffffffffff16021790555060a0820151816005015560c08201518160060160006101000a81548160ff02191690836004811115611680577f4e487b7100000000000000000000000000000000000000000000000000000000600052602160045260246000fd5b021790555060e08201518160070190805190602001906116a1929190611fc4565b506101008201518160080160006101000a81548160ff0219169083151502179055505050806080015173ffffffffffffffffffffffffffffffffffffffff168a73ffffffffffffffffffffffffffffffffffffffff166001547f05b488c72d4a666ff7936ca0ab12901a223c5d3ffd823f5fd377c0ec3b1c6e1f8c8c8a4260405161172f94939291906128d5565b60405180910390a450505050505050505050565b60008054906101000a900473ffffffffffffffffffffffffffffffffffffffff1681565b8273ffffffffffffffffffffffffffffffffffffffff163373ffffffffffffffffffffffffffffffffffffffff1614156117d6576040517f08c379a00000000000000000000000000000000000000000000000000000000081526004016117cd90612967565b60405180910390fd5b600073ffffffffffffffffffffffffffffffffffffffff168373ffffffffffffffffffffffffffffffffffffffff161415611846576040517f08c379a000000000000000000000000000000000000000000000000000000000815260040161183d90612987565b60405180910390fd5b600360003373ffffffffffffffffffffffffffffffffffffffff1673ffffffffffffffffffffffffffffffffffffffff16815260200190815260200160002060008473ffffffffffffffffffffffffffffffffffffffff1673ffffffffffffffffffffffffffffffffffffffff16815260200190815260200160002060009054906101000a900460ff1615611910576040517f08c379a000000000000000000000000000000000000000000000000000000000815260040161190790612a07565b60405180910390fd5b60008282905011611956576040517f08c379a000000000000000000000000000000000000000000000000000000000815260040161194d90612a47565b60405180910390fd5b6001600360003373ffffffffffffffffffffffffffffffffffffffff1673ffffffffffffffffffffffffffffffffffffffff16815260200190815260200160002060008573ffffffffffffffffffffffffffffffffffffffff1673ffffffffffffffffffffffffffffffffffffffff16815260200190815260200160002060006101000a81548160ff021916908315150217905550600460003373ffffffffffffffffffffffffffffffffffffffff1673ffffffffffffffffffffffffffffffffffffffff16815260200190815260200160002060405180608001604052808573ffffffffffffffffffffffffffffffffffffffff16815260200184848080601f016020809104026020016040519081016040528093929190818152602001838380828437600081840152601f19601f82011690508083019250505050505050815260200142815260200160011515815250908060018154018082558091505060019003906000526020600020906004020160009091909190915060008201518160000160006101000a81548173ffffffffffffffffffffffffffffffffffffffff021916908373ffffffffffffffffffffffffffffffffffffffff1602179055506020820151816001019080519060200190611b34929190611fc4565b506040820151816002015560608201518160030160006101000a81548160ff02191690831515021790555050508273ffffffffffffffffffffffffffffffffffffffff163373ffffffffffffffffffffffffffffffffffffffff167f3cb7f6eca2e89478480f2e19de24bf888294c28de0d596963a54d49a51e2252d848442604051611bc293929190612915565b60405180910390a3505050565b6060600260003373ffffffffffffffffffffffffffffffffffffffff1673ffffffffffffffffffffffffffffffffffffffff168152602001908152602001600020805480602002602001604051908101604052809291908181526020016000905b82821015611f7b57838290600052602060002090600902016040518061012001604052908160008201548152602001600182018054611c6e90612bf5565b80601f0160208091040260200160405190810160405280929190818152602001828054611c9a90612bf5565b8015611ce75780601f10611cbc57610100808354040283529160200191611ce7565b820191906000526020600020905b815481529060010190602001808311611cca57829003601f168201915b50505050508152602001600282018054611d0090612bf5565b80601f0160208091040260200160405190810160405280929190818152602001828054611d2c90612bf5565b8015611d795780601f10611d4e57610100808354040283529160200191611d79565b820191906000526020600020905b815481529060010190602001808311611d5c57829003601f168201915b505050505081526020016003820160009054906101000a900473ffffffffffffffffffffffffffffffffffffffff1673ffffffffffffffffffffffffffffffffffffffff1673ffffffffffffffffffffffffffffffffffffffff1681526020016004820160009054906101000a900473ffffffffffffffffffffffffffffffffffffffff1673ffffffffffffffffffffffffffffffffffffffff1673ffffffffffffffffffffffffffffffffffffffff168152602001600582015481526020016006820160009054906101000a900460ff166004811115611e83577f4e487b7100000000000000000000000000000000000000000000000000000000600052602160045260246000fd5b6004811115611ebb577f4e487b7100000000000000000000000000000000000000000000000000000000600052602160045260246000fd5b8152602001600782018054611ecf90612bf5565b80601f0160208091040260200160405190810160405280929190818152602001828054611efb90612bf5565b8015611f485780601f10611f1d57610100808354040283529160200191611f48565b820191906000526020600020905b815481529060010190602001808311611f2b57829003601f168201915b505050505081526020016008820160009054906101000a900460ff16151515158152505081526020019060010190611c30565b50505050905090565b6040518060800160405280600073ffffffffffffffffffffffffffffffffffffffff16815260200160608152602001600081526020016000151581525090565b828054611fd090612bf5565b90600052602060002090601f016020900481019282611ff25760008555612039565b82601f1061200b57805160ff1916838001178555612039565b82800160010185558215612039579182015b8281111561203857825182559160200191906001019061201d565b5b509050612046919061204a565b5090565b5b8082111561206357600081600090555060010161204b565b5090565b60008135905061207681612d36565b92915050565b60008135905061208b81612d4d565b92915050565b6000813590506120a081612d5d565b92915050565b60008083601f8401126120b857600080fd5b8235905067ffffffffffffffff8111156120d157600080fd5b6020830191508360018202830111156120e957600080fd5b9250929050565b60006020828403121561210257600080fd5b600061211084828501612067565b91505092915050565b6000806040838503121561212c57600080fd5b600061213a85828601612067565b925050602061214b85828601612067565b9150509250929050565b60008060006040848603121561216a57600080fd5b600061217886828701612067565b935050602084013567ffffffffffffffff81111561219557600080fd5b6121a1868287016120a6565b92509250509250925092565b60008060008060008060008060a0898b0312156121c957600080fd5b60006121d78b828c01612067565b985050602089013567ffffffffffffffff8111156121f457600080fd5b6122008b828c016120a6565b9750975050604089013567ffffffffffffffff81111561221f57600080fd5b61222b8b828c016120a6565b9550955050606061223e8b828c0161207c565b935050608089013567ffffffffffffffff81111561225b57600080fd5b6122678b828c016120a6565b92509250509295985092959890939650565b60006020828403121561228b57600080fd5b600061229984828501612091565b91505092915050565b60006122ae83836126c3565b905092915050565b60006122c28383612726565b905092915050565b6122d381612b21565b82525050565b6122e281612b21565b82525050565b60006122f382612aa2565b6122fd8185612add565b93508360208202850161230f85612a82565b8060005b8581101561234b578484038952815161232c85826122a2565b945061233783612ac3565b925060208a01995050600181019050612313565b50829750879550505050505092915050565b600061236882612aad565b6123728185612aee565b93508360208202850161238485612a92565b8060005b858110156123c057848403895281516123a185826122b6565b94506123ac83612ad0565b925060208a01995050600181019050612388565b50829750879550505050505092915050565b6123db81612b33565b82525050565b6123ea81612b33565b82525050565b6123f981612b8f565b82525050565b61240881612b8f565b82525050565b61241781612ba1565b82525050565b60006124298385612b10565b9350612436838584612bb3565b61243f83612cfd565b840190509392505050565b600061245582612ab8565b61245f8185612aff565b935061246f818560208601612bc2565b61247881612cfd565b840191505092915050565b6000612490601383612b10565b91507f4465736372697074696f6e2072657175697365000000000000000000000000006000830152602082019050919050565b60006124d0601e83612b10565b91507f496d706f737369626c652064652073276175746f2d6175746f726973657200006000830152602082019050919050565b6000612510601083612b10565b91507f4164726573736520696e76616c696465000000000000000000000000000000006000830152602082019050919050565b6000612550600d83612b10565b91507f526f6c6520696e76616c696465000000000000000000000000000000000000006000830152602082019050919050565b6000612590601c83612b10565b91507f4d65646963616c5265636f7264733a20616363657320726566757365000000006000830152602082019050919050565b60006125d0600f83612b10565b91507f43494420495046532072657175697300000000000000000000000000000000006000830152602082019050919050565b6000612610601583612b10565b91507f4d65646563696e2064656a61206175746f7269736500000000000000000000006000830152602082019050919050565b6000612650601483612b10565b91507f4d65646563696e206e6f6e206175746f726973650000000000000000000000006000830152602082019050919050565b6000612690600a83612b10565b91507f4e6f6d20726571756973000000000000000000000000000000000000000000006000830152602082019050919050565b60006080830160008301516126db60008601826122ca565b50602083015184820360208601526126f3828261244a565b915050604083015161270860408601826127f9565b50606083015161271b60608601826123d2565b508091505092915050565b60006101208301600083015161273f60008601826127f9565b5060208301518482036020860152612757828261244a565b91505060408301518482036040860152612771828261244a565b915050606083015161278660608601826122ca565b50608083015161279960808601826122ca565b5060a08301516127ac60a08601826127f9565b5060c08301516127bf60c08601826123f0565b5060e083015184820360e08601526127d7828261244a565b9150506101008301516127ee6101008601826123d2565b508091505092915050565b61280281612b85565b82525050565b61281181612b85565b82525050565b600060208201905061282c60008301846122d9565b92915050565b6000602082019050818103600083015261284c81846122e8565b905092915050565b6000602082019050818103600083015261286e818461235d565b905092915050565b600060208201905061288b60008301846123e1565b92915050565b60006020820190506128a6600083018461240e565b92915050565b60006040820190506128c1600083018561240e565b6128ce6020830184612808565b9392505050565b600060608201905081810360008301526128f081868861241d565b90506128ff60208301856123ff565b61290c6040830184612808565b95945050505050565b6000604082019050818103600083015261293081858761241d565b905061293f6020830184612808565b949350505050565b6000602082019050818103600083015261296081612483565b9050919050565b60006020820190508181036000830152612980816124c3565b9050919050565b600060208201905081810360008301526129a081612503565b9050919050565b600060208201905081810360008301526129c081612543565b9050919050565b600060208201905081810360008301526129e081612583565b9050919050565b60006020820190508181036000830152612a00816125c3565b9050919050565b60006020820190508181036000830152612a2081612603565b9050919050565b60006020820190508181036000830152612a4081612643565b9050919050565b60006020820190508181036000830152612a6081612683565b9050919050565b6000602082019050612a7c6000830184612808565b92915050565b6000819050602082019050919050565b6000819050602082019050919050565b600081519050919050565b600081519050919050565b600081519050919050565b6000602082019050919050565b6000602082019050919050565b600082825260208201905092915050565b600082825260208201905092915050565b600082825260208201905092915050565b600082825260208201905092915050565b6000612b2c82612b65565b9050919050565b60008115159050919050565b6000819050612b4d82612d0e565b919050565b6000819050612b6082612d22565b919050565b600073ffffffffffffffffffffffffffffffffffffffff82169050919050565b6000819050919050565b6000612b9a82612b3f565b9050919050565b6000612bac82612b52565b9050919050565b82818337600083830152505050565b60005b83811015612be0578082015181840152602081019050612bc5565b83811115612bef576000848401525b50505050565b60006002820490506001821680612c0d57607f821691505b60208210811415612c2157612c20612cce565b5b50919050565b6000612c3282612b85565b91507fffffffffffffffffffffffffffffffffffffffffffffffffffffffffffffffff821415612c6557612c64612c70565b5b600182019050919050565b7f4e487b7100000000000000000000000000000000000000000000000000000000600052601160045260246000fd5b7f4e487b7100000000000000000000000000000000000000000000000000000000600052602160045260246000fd5b7f4e487b7100000000000000000000000000000000000000000000000000000000600052602260045260246000fd5b6000601f19601f8301169050919050565b60058110612d1f57612d1e612c9f565b5b50565b60038110612d3357612d32612c9f565b5b50565b612d3f81612b21565b8114612d4a57600080fd5b50565b60058110612d5a57600080fd5b50565b60038110612d6a57600080fd5b5056fea26469706673582212202502b79eee294380ef5618dcca4ad8f4e80d296dda18ea4bf20be96f90302edd64736f6c63430008000033",
  "immutableReferences": {},
  "source": "// SPDX-License-Identifier: MIT\npragma solidity ^0.8.0;\n\n/// @title  MedicalRecords - Système décentralisé de gestion de dossiers médicaux\n/// @author Blockchain Medical Project\n/// @notice Stocke les références IPFS de fichiers médicaux chiffrés et gère\n///         les droits d'accès entre patients et médecins.\n\ncontract MedicalRecords {\n\n    // ═══════════════════════════════════════════════════════════════\n    //  ENUMS\n    // ═══════════════════════════════════════════════════════════════\n\n    enum RecordType {\n        Consultation,   // 0\n        Ordonnance,     // 1\n        Analyse,        // 2\n        Radiologie,     // 3\n        Autre           // 4\n    }\n\n    enum Role {\n        None,    // 0 – non enregistré\n        Patient, // 1\n        Doctor   // 2\n    }\n\n    // ═══════════════════════════════════════════════════════════════\n    //  STRUCTS\n    // ═══════════════════════════════════════════════════════════════\n\n    struct Record {\n        uint256    id;\n        string     ipfsCID;           // CID IPFS du fichier chiffré (AES)\n        string     encryptedKey;      // Clé AES chiffrée (dérivée du wallet)\n        address    patientAddress;\n        address    doctorAddress;     // address(0) si ajouté par le patient\n        uint256    timestamp;\n        RecordType recordType;\n        string     description;\n        bool       exists;\n    }\n\n    struct DoctorInfo {\n        address doctorAddress;\n        string  name;\n        uint256 grantedAt;\n        bool    active;\n    }\n\n    // ═══════════════════════════════════════════════════════════════\n    //  STATE VARIABLES\n    // ═══════════════════════════════════════════════════════════════\n\n    address public owner;\n    uint256 private recordCounter;\n\n    // patient  → ses dossiers\n    mapping(address => Record[])   private patientRecords;\n\n    // patient  → médecin → autorisé ?\n    mapping(address => mapping(address => bool)) private authorizedDoctors;\n\n    // patient  → liste médecins (avec infos)\n    mapping(address => DoctorInfo[]) private doctorList;\n\n    // adresse  → rôle enregistré\n    mapping(address => Role) public userRole;\n\n    // ═══════════════════════════════════════════════════════════════\n    //  EVENTS  (journal d'audit on-chain)\n    // ═══════════════════════════════════════════════════════════════\n\n    event RecordAdded(\n        uint256    indexed recordId,\n        address    indexed patient,\n        address    indexed doctor,\n        string             ipfsCID,\n        RecordType         recordType,\n        uint256            timestamp\n    );\n\n    event AccessGranted(\n        address indexed patient,\n        address indexed doctor,\n        string          doctorName,\n        uint256         timestamp\n    );\n\n    event AccessRevoked(\n        address indexed patient,\n        address indexed doctor,\n        uint256         timestamp\n    );\n\n    event RoleRegistered(\n        address indexed user,\n        Role            role,\n        uint256         timestamp\n    );\n\n    // ═══════════════════════════════════════════════════════════════\n    //  MODIFIERS\n    // ═══════════════════════════════════════════════════════════════\n\n    modifier onlyAuthorized(address patient) {\n        require(\n            msg.sender == patient ||\n            authorizedDoctors[patient][msg.sender],\n            \"MedicalRecords: acces refuse\"\n        );\n        _;\n    }\n\n    modifier onlyPatientSelf() {\n        require(\n            userRole[msg.sender] == Role.Patient || userRole[msg.sender] == Role.None,\n            \"MedicalRecords: patient uniquement\"\n        );\n        _;\n    }\n\n    // ═══════════════════════════════════════════════════════════════\n    //  CONSTRUCTOR\n    // ═══════════════════════════════════════════════════════════════\n\n    constructor() {\n        owner = msg.sender;\n    }\n\n    // ═══════════════════════════════════════════════════════════════\n    //  ROLE MANAGEMENT\n    // ═══════════════════════════════════════════════════════════════\n\n    /// @notice Enregistre le rôle de l'utilisateur (Patient = 1, Doctor = 2)\n    /// @param  role  Le rôle choisi\n    function registerRole(Role role) external {\n        require(role == Role.Patient || role == Role.Doctor, \"Role invalide\");\n        userRole[msg.sender] = role;\n        emit RoleRegistered(msg.sender, role, block.timestamp);\n    }\n\n    /// @notice Retourne le rôle d'une adresse\n    function getRole(address user) external view returns (Role) {\n        return userRole[user];\n    }\n\n    // ═══════════════════════════════════════════════════════════════\n    //  RECORD MANAGEMENT\n    // ═══════════════════════════════════════════════════════════════\n\n    /// @notice Ajoute un dossier médical (appelant = patient OU médecin autorisé)\n    /// @param  patient      Adresse du patient concerné\n    /// @param  ipfsCID      CID IPFS du fichier chiffré\n    /// @param  encryptedKey Clé AES chiffrée côté client\n    /// @param  rType        Type de dossier (enum RecordType)\n    /// @param  description  Description textuelle du dossier\n    function addRecord(\n        address         patient,\n        string calldata ipfsCID,\n        string calldata encryptedKey,\n        RecordType      rType,\n        string calldata description\n    ) external onlyAuthorized(patient) {\n        require(bytes(ipfsCID).length > 0, \"CID IPFS requis\");\n        require(bytes(description).length > 0, \"Description requise\");\n\n        recordCounter++;\n\n        Record memory rec = Record({\n            id:             recordCounter,\n            ipfsCID:        ipfsCID,\n            encryptedKey:   encryptedKey,\n            patientAddress: patient,\n            doctorAddress:  (msg.sender == patient) ? address(0) : msg.sender,\n            timestamp:      block.timestamp,\n            recordType:     rType,\n            description:    description,\n            exists:         true\n        });\n\n        patientRecords[patient].push(rec);\n\n        emit RecordAdded(\n            recordCounter,\n            patient,\n            rec.doctorAddress,\n            ipfsCID,\n            rType,\n            block.timestamp\n        );\n    }\n\n    // ═══════════════════════════════════════════════════════════════\n    //  ACCESS CONTROL\n    // ═══════════════════════════════════════════════════════════════\n\n    /// @notice Le patient accorde l'accès à un médecin\n    /// @param  doctor      Adresse wallet du médecin\n    /// @param  doctorName  Nom du médecin (stocké on-chain pour affichage)\n    function grantAccess(address doctor, string calldata doctorName)\n        external\n    {\n        require(msg.sender != doctor,                          \"Impossible de s'auto-autoriser\");\n        require(doctor != address(0),                          \"Adresse invalide\");\n        require(!authorizedDoctors[msg.sender][doctor],        \"Medecin deja autorise\");\n        require(bytes(doctorName).length > 0,                  \"Nom requis\");\n\n        authorizedDoctors[msg.sender][doctor] = true;\n\n        doctorList[msg.sender].push(DoctorInfo({\n            doctorAddress: doctor,\n            name:          doctorName,\n            grantedAt:     block.timestamp,\n            active:        true\n        }));\n\n        emit AccessGranted(msg.sender, doctor, doctorName, block.timestamp);\n    }\n\n    /// @notice Le patient révoque l'accès d'un médecin\n    /// @param  doctor  Adresse wallet du médecin à révoquer\n    function revokeAccess(address doctor) external {\n        require(authorizedDoctors[msg.sender][doctor], \"Medecin non autorise\");\n\n        authorizedDoctors[msg.sender][doctor] = false;\n\n        // Marquer comme inactif dans la liste\n        DoctorInfo[] storage list = doctorList[msg.sender];\n        for (uint256 i = 0; i < list.length; i++) {\n            if (list[i].doctorAddress == doctor) {\n                list[i].active = false;\n                break;\n            }\n        }\n\n        emit AccessRevoked(msg.sender, doctor, block.timestamp);\n    }\n\n    // ═══════════════════════════════════════════════════════════════\n    //  GETTERS\n    // ═══════════════════════════════════════════════════════════════\n\n    /// @notice Récupère tous les dossiers du patient appelant\n    function getMyRecords() external view returns (Record[] memory) {\n        return patientRecords[msg.sender];\n    }\n\n    /// @notice Un médecin récupère les dossiers d'un patient (si autorisé)\n    /// @param  patient  Adresse du patient\n    function getPatientRecords(address patient)\n        external\n        view\n        onlyAuthorized(patient)\n        returns (Record[] memory)\n    {\n        return patientRecords[patient];\n    }\n\n    /// @notice Vérifie si un médecin est autorisé pour un patient\n    function isAuthorized(address patient, address doctor)\n        external\n        view\n        returns (bool)\n    {\n        return authorizedDoctors[patient][doctor];\n    }\n\n    /// @notice Liste des médecins autorisés (actifs) d'un patient\n    function getAuthorizedDoctors()\n        external\n        view\n        returns (DoctorInfo[] memory)\n    {\n        DoctorInfo[] storage all = doctorList[msg.sender];\n        uint256 activeCount = 0;\n        for (uint256 i = 0; i < all.length; i++) {\n            if (all[i].active) activeCount++;\n        }\n        DoctorInfo[] memory active = new DoctorInfo[](activeCount);\n        uint256 j = 0;\n        for (uint256 i = 0; i < all.length; i++) {\n            if (all[i].active) {\n                active[j++] = all[i];\n            }\n        }\n        return active;\n    }\n\n    /// @notice Nombre total de dossiers créés (tous patients confondus)\n    function getTotalRecords() external view returns (uint256) {\n        return recordCounter;\n    }\n\n    /// @notice Nombre de dossiers d'un patient\n    function getPatientRecordCount(address patient)\n        external\n        view\n        returns (uint256)\n    {\n        return patientRecords[patient].length;\n    }\n}\n",
  "sourcePath": "C:\\Users\\pc\\Desktop\\project_Blockchain\\app1\\contracts\\MedicalRecords.sol",
  "compiler": {
    "name": "solc",
    "version": "0.8.0+commit.c7dfd78e.Emscripten.clang"
  },
  "schemaVersion": "3.4.16",
  "updatedAt": "2026-05-11T15:41:19.016Z",
  "devdoc": {
    "author": "Blockchain Medical Project",
    "kind": "dev",
    "methods": {
      "addRecord(address,string,string,uint8,string)": {
        "params": {
          "description": "Description textuelle du dossier",
          "encryptedKey": "Clé AES chiffrée côté client",
          "ipfsCID": "CID IPFS du fichier chiffré",
          "patient": "Adresse du patient concerné",
          "rType": "Type de dossier (enum RecordType)"
        }
      },
      "getPatientRecords(address)": {
        "params": {
          "patient": "Adresse du patient"
        }
      },
      "grantAccess(address,string)": {
        "params": {
          "doctor": "Adresse wallet du médecin",
          "doctorName": "Nom du médecin (stocké on-chain pour affichage)"
        }
      },
      "registerRole(uint8)": {
        "params": {
          "role": "Le rôle choisi"
        }
      },
      "revokeAccess(address)": {
        "params": {
          "doctor": "Adresse wallet du médecin à révoquer"
        }
      }
    },
    "title": "MedicalRecords - Système décentralisé de gestion de dossiers médicaux",
    "version": 1
  },
  "userdoc": {
    "kind": "user",
    "methods": {
      "addRecord(address,string,string,uint8,string)": {
        "notice": "Ajoute un dossier médical (appelant = patient OU médecin autorisé)"
      },
      "getAuthorizedDoctors()": {
        "notice": "Liste des médecins autorisés (actifs) d'un patient"
      },
      "getMyRecords()": {
        "notice": "Récupère tous les dossiers du patient appelant"
      },
      "getPatientRecordCount(address)": {
        "notice": "Nombre de dossiers d'un patient"
      },
      "getPatientRecords(address)": {
        "notice": "Un médecin récupère les dossiers d'un patient (si autorisé)"
      },
      "getRole(address)": {
        "notice": "Retourne le rôle d'une adresse"
      },
      "getTotalRecords()": {
        "notice": "Nombre total de dossiers créés (tous patients confondus)"
      },
      "grantAccess(address,string)": {
        "notice": "Le patient accorde l'accès à un médecin"
      },
      "isAuthorized(address,address)": {
        "notice": "Vérifie si un médecin est autorisé pour un patient"
      },
      "registerRole(uint8)": {
        "notice": "Enregistre le rôle de l'utilisateur (Patient = 1, Doctor = 2)"
      },
      "revokeAccess(address)": {
        "notice": "Le patient révoque l'accès d'un médecin"
      }
    },
    "notice": "Stocke les références IPFS de fichiers médicaux chiffrés et gère         les droits d'accès entre patients et médecins.",
    "version": 1
  }
}